:100000000C942A000C9434000C9434000C943400AA
:100010000C9434000C9434000C9434000C94340090
:100020000C9436000C9434000C9434000C9434007E
:100030000C9434000C9434000C9434000C94340070
:100040000C9434000C9434000C9434000C94340060
:100050000C94340011241FBECFE5D4E0DEBFCDBF29
:100060000E944B000C945B000C9400001F920F92B6
:100070000FB60F9211248F939F938BB380958BBBF8
:1000800084EF92EC9DBD8CBD9F918F910F900FBE20
:100090000F901F90189578948FEF8ABB1BBA89B781
:1000A000846089BF8EB583608EBD84EF92EC9DBD68
:0A00B0008CBD7894FFCFF894FFCFC9
:00000001FF
