S01B00003230323230313139202D204D43202D2050574D2E737265631A
S11300000C942A000C9447000C9447000C9447006D
S11300100C9447000C9447000C9447000C94470040
S11300200C9447000C9449000C9447000C9447002E
S11300300C9447000C9447000C9447000C94470020
S11300400C9447000C9447000C9447000C94470010
S11300500C94470011241FBECFE5D4E0DEBFCDBF12
S113006010E0A0E6B0E0E2E0F1E002C005900D92FD
S1130070A236B107D9F720E0A2E6B0E001C01D9294
S1130080A436B207E1F70E946D000C947F000C9433
S113009000001F920F920FB60F9211248F939F931B
S11300A080916000882349F09BB383E089278BBB50
S11300B089E182BF1092600009C09BB383E0892765
S11300C08BBB86EE82BF81E0809360009F918F910D
S11300D00F900FBE0F901F90189578948FEF8ABBE6
S11300E08BBB89B7816089BF83B7816083BF80E0A0
S11300F091E0909363008093620012BEFFCFF89466
S1050100FFCF2B
S10501020100F6
S9030000FC
