S02200003230323130393232202D204D43202D204C6175664C69636874432E7372656347
S11300000C942A000C943F000C943F000C943F0085
S11300100C943F000C943F000C943F000C943F0060
S11300200C943F000C943F000C943F000C943F0050
S11300300C943F000C943F000C943F000C943F0040
S11300400C943F000C943F000C943F000C943F0030
S11300500C943F0011241FBECFE5D4E0DEBFCDBF1A
S113006010E0A0E6B0E0EAE9F0E002C005900D92ED
S1130070A236B107D9F70E9441000C944B000C94AE
S1130080000080916000909161000196909361005E
S10D009080936000F6CFF894FFCFD0
S105009A1E0042
S9030000FC
