:100000000C942A000C9441000C943F000C943F0087
:100010000C943F000C943F000C943F000C943F0064
:100020000C943F000C943F000C943F000C943F0054
:100030000C943F000C943F000C943F000C943F0044
:100040000C943F000C943F000C943F000C943F0034
:100050000C943F0011241FBECFE5D4E0DEBFCDBF1E
:1000600010E0A0E6B0E0ECE3F1E002C005900D92F4
:10007000A836B107D9F70E9491000C949C000C940B
:1000800000001F920F920FB60F9211242F933F93EF
:100090004F938F939F93AF93BF93EF93FF93CF9320
:1000A000DF93CDB7DEB72897DEBFCDBF88E0E0E6AF
:1000B000F0E0DE01119601900D928A95E1F780E063
:1000C00090E015C0FC01EE0FFF1F21E030E02C0F87
:1000D0003D1FE20FF31F20812BBB3FE74AE126E0E3
:1000E000315040402040E1F700C0000001968430CC
:1000F000910544F31BBA28960FB6F894DEBF0FBEE5
:10010000CDBFDF91CF91FF91EF91BF91AF919F91C3
:100110008F914F913F912F910F900FBE0F901F9095
:1001200018958FEF8ABB1BBA11BA82BB83E085BFDB
:0C01300080E48BBF7894FFCFF894FFCFE1
:08013C000100020004000800AC
:00000001FF
