S02500003230323130393239202D204D43202D204C6175664C696368745F4F4F502E7372656333
S11300000C942A000C943F000C943F000C943F0085
S11300100C943F000C943F000C943F000C943F0060
S11300200C943F000C943F000C943F000C943F0050
S11300300C943F000C943F000C943F000C943F0040
S11300400C943F000C943F000C943F000C943F0030
S11300500C943F0011241FBECFE5D4E0DEBFCDBF1A
S113006010E0A0E6B0E0E2E3F1E002C005900D92FA
S1130070A038B107D9F70E944B000C9497000C9458
S113008000002FE986E891E0215080409040E1F79C
S113009000C000000895CF93DF93CDB7DEB7A097DB
S11300A00FB6F894DEBF0FBECDBF8FEF8ABB1BBA6D
S11300B080E1E0E6F0E0DE01119601900D928A9570
S11300C0E1F780E1E0E7F0E0DE01519601900D9266
S11300D08A95E1F700E010E00FC0F801EE0FFF1F72
S11300E081E090E08C0F9D1FE80FF91F80818BBB8E
S11300F00E9441000F5F1F4F0830110574F300E0A8
S113010010E00FC0F801EE0FFF1F81E090E08C0FAC
S11301109D1FE80FF91F80898BBB0E9441000F5F70
S11301201F4F0830110574F30E944100D3CFF89497
S1050130FFCFFB
S113013280004000200010000800040002000100BA
S113014201000200040008001000200040008000AA
S9030000FC
