:100000000C942A000C9434000C9434000C943400AA
:100010000C9434000C9434000C9434000C94340090
:100020000C9434000C9434000C9434000C94340080
:100030000C9434000C9434000C9434000C94340070
:100040000C9434000C9434000C9434000C94340060
:100050000C94340011241FBECFE5D4E0DEBFCDBF29
:100060000E9462000C946A000C9400002FE986E85C
:1000700091E0215080409040E1F700C000000895D9
:100080000E9436001BBA0E9436008FEF8BBB0E9485
:1000900036000895CF93DF93C0E0D0E00DC081E03B
:1000A00090E00C2E02C0880F991F0A94E2F78BBBD8
:1000B0000E9436001BBA2196C830D10584F3DF9127
:1000C000CF9108958FEF8ABB1BBA0E9440000E9417
:0800D0004A00FBCFF894FFCFBA
:00000001FF
