:100000000C942A000C943F000C943F000C943F0089
:100010000C943F000C943F000C943F000C943F0064
:100020000C943F000C943F000C943F000C943F0054
:100030000C943F000C943F000C943F000C943F0044
:100040000C943F000C943F000C943F000C943F0034
:100050000C943F0011241FBECFE5D4E0DEBFCDBF1E
:1000600010E0A0E6B0E0EAEEF0E002C005900D92EC
:10007000A037B107D9F70E9441000C9473000C948B
:100080000000CF93DF93CDB7DEB760970FB6F8943B
:10009000DEBF0FBECDBF8FEF8ABB1BBA80E1E0E6AB
:1000A000F0E0DE01119601900D928A95E1F780E073
:1000B00090E015C0FC01EE0FFF1F21E030E02C0F97
:1000C0003D1FE20FF31F20812BBB3FE342E42FE0F3
:1000D000315040402040E1F700C0000001968830D8
:0A00E000910544F3E4CFF894FFCF3C
:1000EA000A000800090001000500040006000200D9
:00000001FF
