S01B000032303231313030362D4D432D53636872616E6B2E73726563C9
S11300000C942A000C943F000C943F000C943F0085
S11300100C943F000C943F000C943F000C943F0060
S11300200C943F000C943F000C943F000C943F0050
S11300300C943F000C943F000C943F000C943F0040
S11300400C943F000C943F000C943F000C943F0030
S11300500C943F0011241FBECFE5D4E0DEBFCDBF1A
S113006010E0A0E6B0E0E4E3F1E002C005900D92F8
S1130070A836B107D9F70E9441000C9498000C945B
S11300800000CF93DF93CDB7DEB728970FB6F8946F
S1130090DEBF0FBECDBF8FEF8ABB1BBA88E0E0E6A0
S11300A0F0E0DE01119601900D928A95E1F780E06F
S11300B090E015C0FC01EE0FFF1F21E030E02C0F93
S11300C03D1FE20FF31F20812BBB3FE34DE023E0F4
S11300D0315040402040E1F700C0000001968830D4
S11300E0910540F383E090E015C0FC01EE0FFF1F83
S11300F021E030E02C0F3D1FE20FF31F20812BBBCA
S11301003FE34DE023E0315040402040E1F700C0A0
S1130110000001978930910540F780E090E028962F
S11301200FB6F894DEBF0FBECDBFDF91CF91089517
S1070130F894FFCF6D
S10B01340A00090005000600A1
S9030000FC
